{
  "_format": "hh-sol-artifact-1",
  "contractName": "McpConsumer",
  "sourceName": "contracts/McpConsumer.sol",
  "abi": [
    {
      "inputs": [
        {
          "internalType": "address",
          "name": "_priceFeed",
          "type": "address"
        },
        {
          "internalType": "address",
          "name": "_provider",
          "type": "address"
        }
      ],
      "stateMutability": "nonpayable",
      "type": "constructor"
    },
    {
      "anonymous": false,
      "inputs": [
        {
          "indexed": true,
          "internalType": "address",
          "name": "user",
          "type": "address"
        },
        {
          "indexed": false,
          "internalType": "uint256",
          "name": "index",
          "type": "uint256"
        },
        {
          "indexed": false,
          "internalType": "uint256",
          "name": "timestamp",
          "type": "uint256"
        }
      ],
      "name": "MCPUpdateExecuted",
      "type": "event"
    },
    {
      "anonymous": false,
      "inputs": [
        {
          "indexed": true,
          "internalType": "address",
          "name": "previousOwner",
          "type": "address"
        },
        {
          "indexed": true,
          "internalType": "address",
          "name": "newOwner",
          "type": "address"
        }
      ],
      "name": "OwnershipTransferred",
      "type": "event"
    },
    {
      "anonymous": false,
      "inputs": [
        {
          "indexed": true,
          "internalType": "address",
          "name": "consumer",
          "type": "address"
        },
        {
          "indexed": true,
          "internalType": "uint256",
          "name": "subId",
          "type": "uint256"
        },
        {
          "indexed": false,
          "internalType": "uint256",
          "name": "providerNonce",
          "type": "uint256"
        },
        {
          "indexed": false,
          "internalType": "uint256",
          "name": "avaxPaid",
          "type": "uint256"
        }
      ],
      "name": "Subscribed",
      "type": "event"
    },
    {
      "anonymous": false,
      "inputs": [
        {
          "indexed": true,
          "internalType": "address",
          "name": "consumer",
          "type": "address"
        },
        {
          "indexed": true,
          "internalType": "uint256",
          "name": "subId",
          "type": "uint256"
        },
        {
          "indexed": false,
          "internalType": "enum McpConsumer.SubStatus",
          "name": "status",
          "type": "uint8"
        }
      ],
      "name": "SubscriptionResolved",
      "type": "event"
    },
    {
      "inputs": [],
      "name": "GRACE_PERIOD",
      "outputs": [
        {
          "internalType": "uint256",
          "name": "",
          "type": "uint256"
        }
      ],
      "stateMutability": "view",
      "type": "function"
    },
    {
      "inputs": [
        {
          "internalType": "uint256",
          "name": "",
          "type": "uint256"
        }
      ],
      "name": "allConsumers",
      "outputs": [
        {
          "internalType": "address",
          "name": "",
          "type": "address"
        }
      ],
      "stateMutability": "view",
      "type": "function"
    },
    {
      "inputs": [
        {
          "internalType": "bytes",
          "name": "checkData",
          "type": "bytes"
        }
      ],
      "name": "checkUpkeep",
      "outputs": [
        {
          "internalType": "bool",
          "name": "upkeepNeeded",
          "type": "bool"
        },
        {
          "internalType": "bytes",
          "name": "performData",
          "type": "bytes"
        }
      ],
      "stateMutability": "view",
      "type": "function"
    },
    {
      "inputs": [
        {
          "internalType": "address",
          "name": "_consumer",
          "type": "address"
        }
      ],
      "name": "getConsumerMcps",
      "outputs": [
        {
          "components": [
            {
              "internalType": "uint256",
              "name": "providerNonce",
              "type": "uint256"
            },
            {
              "internalType": "address",
              "name": "providerAddress",
              "type": "address"
            },
            {
              "internalType": "uint256",
              "name": "amountPaid",
              "type": "uint256"
            },
            {
              "internalType": "uint256",
              "name": "startTimestamp",
              "type": "uint256"
            },
            {
              "internalType": "enum McpConsumer.SubStatus",
              "name": "status",
              "type": "uint8"
            },
            {
              "internalType": "string",
              "name": "url",
              "type": "string"
            }
          ],
          "internalType": "struct McpConsumer.Subscription[]",
          "name": "",
          "type": "tuple[]"
        }
      ],
      "stateMutability": "view",
      "type": "function"
    },
    {
      "inputs": [],
      "name": "getLatestAvaxUsdPrice",
      "outputs": [
        {
          "internalType": "uint256",
          "name": "",
          "type": "uint256"
        }
      ],
      "stateMutability": "view",
      "type": "function"
    },
    {
      "inputs": [
        {
          "internalType": "address",
          "name": "",
          "type": "address"
        }
      ],
      "name": "isKnownConsumer",
      "outputs": [
        {
          "internalType": "bool",
          "name": "",
          "type": "bool"
        }
      ],
      "stateMutability": "view",
      "type": "function"
    },
    {
      "inputs": [],
      "name": "mcpProvider",
      "outputs": [
        {
          "internalType": "contract IMcpProvider",
          "name": "",
          "type": "address"
        }
      ],
      "stateMutability": "view",
      "type": "function"
    },
    {
      "inputs": [],
      "name": "owner",
      "outputs": [
        {
          "internalType": "address",
          "name": "",
          "type": "address"
        }
      ],
      "stateMutability": "view",
      "type": "function"
    },
    {
      "inputs": [
        {
          "internalType": "uint256",
          "name": "_providerNonce",
          "type": "uint256"
        }
      ],
      "name": "penalizeProvider",
      "outputs": [],
      "stateMutability": "nonpayable",
      "type": "function"
    },
    {
      "inputs": [
        {
          "internalType": "bytes",
          "name": "performData",
          "type": "bytes"
        }
      ],
      "name": "performUpkeep",
      "outputs": [],
      "stateMutability": "nonpayable",
      "type": "function"
    },
    {
      "inputs": [],
      "name": "priceFeed",
      "outputs": [
        {
          "internalType": "contract AggregatorV3Interface",
          "name": "",
          "type": "address"
        }
      ],
      "stateMutability": "view",
      "type": "function"
    },
    {
      "inputs": [],
      "name": "renounceOwnership",
      "outputs": [],
      "stateMutability": "nonpayable",
      "type": "function"
    },
    {
      "inputs": [
        {
          "internalType": "uint256",
          "name": "_providerNonce",
          "type": "uint256"
        }
      ],
      "name": "subscribeToMcp",
      "outputs": [],
      "stateMutability": "payable",
      "type": "function"
    },
    {
      "inputs": [
        {
          "internalType": "address",
          "name": "newOwner",
          "type": "address"
        }
      ],
      "name": "transferOwnership",
      "outputs": [],
      "stateMutability": "nonpayable",
      "type": "function"
    },
    {
      "inputs": [
        {
          "internalType": "address",
          "name": "",
          "type": "address"
        },
        {
          "internalType": "uint256",
          "name": "",
          "type": "uint256"
        }
      ],
      "name": "userSubscriptions",
      "outputs": [
        {
          "internalType": "uint256",
          "name": "providerNonce",
          "type": "uint256"
        },
        {
          "internalType": "address",
          "name": "providerAddress",
          "type": "address"
        },
        {
          "internalType": "uint256",
          "name": "amountPaid",
          "type": "uint256"
        },
        {
          "internalType": "uint256",
          "name": "startTimestamp",
          "type": "uint256"
        },
        {
          "internalType": "enum McpConsumer.SubStatus",
          "name": "status",
          "type": "uint8"
        },
        {
          "internalType": "string",
          "name": "url",
          "type": "string"
        }
      ],
      "stateMutability": "view",
      "type": "function"
    },
    {
      "inputs": [
        {
          "internalType": "address payable",
          "name": "to",
          "type": "address"
        }
      ],
      "name": "withdrawAvax",
      "outputs": [],
      "stateMutability": "nonpayable",
      "type": "function"
    }
  ],
  "bytecode": "0x6080604052607860065534801561001557600080fd5b50604051612e65380380612e658339818101604052810190610037919061020b565b6100536100486100dc60201b60201c565b6100e460201b60201c565b81600460006101000a81548173ffffffffffffffffffffffffffffffffffffffff021916908373ffffffffffffffffffffffffffffffffffffffff16021790555080600560006101000a81548173ffffffffffffffffffffffffffffffffffffffff021916908373ffffffffffffffffffffffffffffffffffffffff160217905550505061024b565b600033905090565b60008060009054906101000a900473ffffffffffffffffffffffffffffffffffffffff169050816000806101000a81548173ffffffffffffffffffffffffffffffffffffffff021916908373ffffffffffffffffffffffffffffffffffffffff1602179055508173ffffffffffffffffffffffffffffffffffffffff168173ffffffffffffffffffffffffffffffffffffffff167f8be0079c531659141344cd1fd0a4f28419497f9722a3daafe3b4186f6b6457e060405160405180910390a35050565b600080fd5b600073ffffffffffffffffffffffffffffffffffffffff82169050919050565b60006101d8826101ad565b9050919050565b6101e8816101cd565b81146101f357600080fd5b50565b600081519050610205816101df565b92915050565b60008060408385031215610222576102216101a8565b5b6000610230858286016101f6565b9250506020610241858286016101f6565b9150509250929050565b612c0b8061025a6000396000f3fe6080604052600436106100f35760003560e01c80638da5cb5b1161008a578063d37dd42711610059578063d37dd42714610311578063db6c00f21461034e578063e2b38c2814610377578063f2fde38b146103b4576100f3565b80638da5cb5b1461024e578063a97f8bed14610279578063c1a287e2146102a4578063c95d6edc146102cf576100f3565b80636e04ff0d116100c65780636e04ff0d146101b2578063715018a6146101f0578063741bef1a146102075780637727c30914610232576100f3565b8063259e3e98146100f857806333bbf0cc146101215780634585e33b1461014c57806355cb320f14610175575b600080fd5b34801561010457600080fd5b5061011f600480360381019061011a9190611879565b6103dd565b005b34801561012d57600080fd5b506101366105e7565b60405161014391906118b5565b60405180910390f35b34801561015857600080fd5b50610173600480360381019061016e9190611935565b6106cb565b005b34801561018157600080fd5b5061019c60048036038101906101979190611879565b6108e3565b6040516101a991906119c3565b60405180910390f35b3480156101be57600080fd5b506101d960048036038101906101d49190611935565b610922565b6040516101e7929190611a89565b60405180910390f35b3480156101fc57600080fd5b50610205610ad2565b005b34801561021357600080fd5b5061021c610ae6565b6040516102299190611b18565b60405180910390f35b61024c60048036038101906102479190611879565b610b0c565b005b34801561025a57600080fd5b50610263611022565b60405161027091906119c3565b60405180910390f35b34801561028557600080fd5b5061028e61104b565b60405161029b9190611b54565b60405180910390f35b3480156102b057600080fd5b506102b9611071565b6040516102c691906118b5565b60405180910390f35b3480156102db57600080fd5b506102f660048036038101906102f19190611b9b565b611077565b60405161030896959493929190611ca7565b60405180910390f35b34801561031d57600080fd5b5061033860048036038101906103339190611d0f565b611185565b6040516103459190611efe565b60405180910390f35b34801561035a57600080fd5b5061037560048036038101906103709190611f5e565b611549565b005b34801561038357600080fd5b5061039e60048036038101906103999190611d0f565b6115e4565b6040516103ab9190611f8b565b60405180910390f35b3480156103c057600080fd5b506103db60048036038101906103d69190611d0f565b611604565b005b6103e5611687565b60005b6002805490508110156105e35760006002828154811061040b5761040a611fa6565b5b9060005260206000200160009054906101000a900473ffffffffffffffffffffffffffffffffffffffff1690506000600160008373ffffffffffffffffffffffffffffffffffffffff1673ffffffffffffffffffffffffffffffffffffffff168152602001908152602001600020905060005b81805490508110156105d357600082828154811061049f5761049e611fa6565b5b906000526020600020906006020190508581600001541480156104f75750600060018111156104d1576104d0611bdb565b5b8160040160009054906101000a900460ff1660018111156104f5576104f4611bdb565b5b145b156105c55760018160040160006101000a81548160ff0219169083600181111561052457610523611bdb565b5b02179055508373ffffffffffffffffffffffffffffffffffffffff166108fc82600201549081150290604051600060405180830381858888f19350505050158015610573573d6000803e3d6000fd5b50818473ffffffffffffffffffffffffffffffffffffffff167feeee70c80f0f6aa495ba23796309fe488b87ec51a85d7874a243d339f55e913560016040516105bc9190611fd5565b60405180910390a35b50808060010191505061047e565b50505080806001019150506103e8565b5050565b600080600460009054906101000a900473ffffffffffffffffffffffffffffffffffffffff1673ffffffffffffffffffffffffffffffffffffffff1663feaf968c6040518163ffffffff1660e01b815260040160a060405180830381865afa158015610657573d6000803e3d6000fd5b505050506040513d601f19601f8201168201806040525081019061067b919061207d565b505050915050600081136106c4576040517f08c379a00000000000000000000000000000000000000000000000000000000081526004016106bb90612144565b60405180910390fd5b8091505090565b60008083838101906106dd9190612164565b915091506000600160008473ffffffffffffffffffffffffffffffffffffffff1673ffffffffffffffffffffffffffffffffffffffff168152602001908152602001600020828154811061073457610733611fa6565b5b906000526020600020906006020190506000600181111561075857610757611bdb565b5b8160040160009054906101000a900460ff16600181111561077c5761077b611bdb565b5b146107bc576040517f08c379a00000000000000000000000000000000000000000000000000000000081526004016107b3906121f0565b60405180910390fd5b60065481600301546107ce919061223f565b421161080f576040517f08c379a0000000000000000000000000000000000000000000000000000000008152600401610806906122bf565b60405180910390fd5b60018160040160006101000a81548160ff0219169083600181111561083757610836611bdb565b5b0217905550818373ffffffffffffffffffffffffffffffffffffffff167feeee70c80f0f6aa495ba23796309fe488b87ec51a85d7874a243d339f55e913560016040516108849190611fd5565b60405180910390a38273ffffffffffffffffffffffffffffffffffffffff167f70770140d75f0062d5aaf7d948a51e7af365a59b9ababfe629861f93018a32ff83426040516108d49291906122df565b60405180910390a25050505050565b600281815481106108f357600080fd5b906000526020600020016000915054906101000a900473ffffffffffffffffffffffffffffffffffffffff1681565b6000606060005b600280549050811015610ab35760006002828154811061094c5761094b611fa6565b5b9060005260206000200160009054906101000a900473ffffffffffffffffffffffffffffffffffffffff1690506000600160008373ffffffffffffffffffffffffffffffffffffffff1673ffffffffffffffffffffffffffffffffffffffff168152602001908152602001600020905060005b8180549050811015610aa357600060018111156109df576109de611bdb565b5b8282815481106109f2576109f1611fa6565b5b906000526020600020906006020160040160009054906101000a900460ff166001811115610a2357610a22611bdb565b5b148015610a605750600654828281548110610a4157610a40611fa6565b5b906000526020600020906006020160030154610a5d919061223f565b42115b15610a965760018382604051602001610a7a929190612308565b6040516020818303038152906040529550955050505050610acb565b80806001019150506109bf565b5050508080600101915050610929565b50600060405180602001604052806000815250915091505b9250929050565b610ada611687565b610ae46000611705565b565b600460009054906101000a900473ffffffffffffffffffffffffffffffffffffffff1681565b600360003373ffffffffffffffffffffffffffffffffffffffff1673ffffffffffffffffffffffffffffffffffffffff16815260200190815260200160002060009054906101000a900460ff16610c19576001600360003373ffffffffffffffffffffffffffffffffffffffff1673ffffffffffffffffffffffffffffffffffffffff16815260200190815260200160002060006101000a81548160ff0219169083151502179055506002339080600181540180825580915050600190039060005260206000200160009091909190916101000a81548173ffffffffffffffffffffffffffffffffffffffff021916908373ffffffffffffffffffffffffffffffffffffffff1602179055505b600560009054906101000a900473ffffffffffffffffffffffffffffffffffffffff1673ffffffffffffffffffffffffffffffffffffffff16634f558e79826040518263ffffffff1660e01b8152600401610c7491906118b5565b602060405180830381865afa158015610c91573d6000803e3d6000fd5b505050506040513d601f19601f82011682018060405250810190610cb5919061235d565b610cf4576040517f08c379a0000000000000000000000000000000000000000000000000000000008152600401610ceb906123d6565b60405180910390fd5b6000806000600560009054906101000a900473ffffffffffffffffffffffffffffffffffffffff1673ffffffffffffffffffffffffffffffffffffffff1663c2698c84856040518263ffffffff1660e01b8152600401610d5491906118b5565b600060405180830381865afa158015610d71573d6000803e3d6000fd5b505050506040513d6000823e3d601f19601f82011682018060405250810190610d9a919061252c565b9550509450509350506000610dad6105e7565b6305f5e10084610dbd919061260d565b610dc7919061267e565b905080341015610e0c576040517f08c379a0000000000000000000000000000000000000000000000000000000008152600401610e03906126fb565b60405180910390fd5b60006040518060c001604052808781526020018673ffffffffffffffffffffffffffffffffffffffff16815260200134815260200142815260200160006001811115610e5b57610e5a611bdb565b5b8152602001848152509050600160003373ffffffffffffffffffffffffffffffffffffffff1673ffffffffffffffffffffffffffffffffffffffff1681526020019081526020016000208190806001815401808255809150506001900390600052602060002090600602016000909190919091506000820151816000015560208201518160010160006101000a81548173ffffffffffffffffffffffffffffffffffffffff021916908373ffffffffffffffffffffffffffffffffffffffff160217905550604082015181600201556060820151816003015560808201518160040160006101000a81548160ff02191690836001811115610f5f57610f5e611bdb565b5b021790555060a0820151816005019081610f79919061291d565b50505060018060003373ffffffffffffffffffffffffffffffffffffffff1673ffffffffffffffffffffffffffffffffffffffff16815260200190815260200160002080549050610fca91906129ef565b3373ffffffffffffffffffffffffffffffffffffffff167f5ad333a6d56a7ddb1e78d9ecb8047e9dafcb890a41a227ede8d950259a1f0f7588346040516110129291906122df565b60405180910390a3505050505050565b60008060009054906101000a900473ffffffffffffffffffffffffffffffffffffffff16905090565b600560009054906101000a900473ffffffffffffffffffffffffffffffffffffffff1681565b60065481565b6001602052816000526040600020818154811061109357600080fd5b9060005260206000209060060201600091509150508060000154908060010160009054906101000a900473ffffffffffffffffffffffffffffffffffffffff16908060020154908060030154908060040160009054906101000a900460ff16908060050180546111029061274a565b80601f016020809104026020016040519081016040528092919081815260200182805461112e9061274a565b801561117b5780601f106111505761010080835404028352916020019161117b565b820191906000526020600020905b81548152906001019060200180831161115e57829003601f168201915b5050505050905086565b60606000600160008473ffffffffffffffffffffffffffffffffffffffff1673ffffffffffffffffffffffffffffffffffffffff16815260200190815260200160002090506000805b828054905081101561129157600060018111156111ee576111ed611bdb565b5b83828154811061120157611200611fa6565b5b906000526020600020906006020160040160009054906101000a900460ff16600181111561123257611231611bdb565b5b14801561127057506006548382815481106112505761124f611fa6565b5b90600052602060002090600602016003015461126c919061223f565b4211155b1561128457818061128090612a23565b9250505b80806001019150506111ce565b5060008167ffffffffffffffff8111156112ae576112ad612410565b5b6040519080825280602002602001820160405280156112e757816020015b6112d46117d1565b8152602001906001900390816112cc5790505b5090506000805b848054905081101561153c576000600181111561130e5761130d611bdb565b5b85828154811061132157611320611fa6565b5b906000526020600020906006020160040160009054906101000a900460ff16600181111561135257611351611bdb565b5b14801561139057506006548582815481106113705761136f611fa6565b5b90600052602060002090600602016003015461138c919061223f565b4211155b1561152f578481815481106113a8576113a7611fa6565b5b90600052602060002090600602016040518060c0016040529081600082015481526020016001820160009054906101000a900473ffffffffffffffffffffffffffffffffffffffff1673ffffffffffffffffffffffffffffffffffffffff1673ffffffffffffffffffffffffffffffffffffffff16815260200160028201548152602001600382015481526020016004820160009054906101000a900460ff16600181111561145a57611459611bdb565b5b600181111561146c5761146b611bdb565b5b81526020016005820180546114809061274a565b80601f01602080910402602001604051908101604052809291908181526020018280546114ac9061274a565b80156114f95780601f106114ce576101008083540402835291602001916114f9565b820191906000526020600020905b8154815290600101906020018083116114dc57829003601f168201915b50505050508152505083838151811061151557611514611fa6565b5b6020026020010181905250818061152b90612a23565b9250505b80806001019150506112ee565b5081945050505050919050565b611551611687565b600047905060008111611599576040517f08c379a000000000000000000000000000000000000000000000000000000000815260040161159090612ab7565b60405180910390fd5b8173ffffffffffffffffffffffffffffffffffffffff166108fc829081150290604051600060405180830381858888f193505050501580156115df573d6000803e3d6000fd5b505050565b60036020528060005260406000206000915054906101000a900460ff1681565b61160c611687565b600073ffffffffffffffffffffffffffffffffffffffff168173ffffffffffffffffffffffffffffffffffffffff160361167b576040517f08c379a000000000000000000000000000000000000000000000000000000000815260040161167290612b49565b60405180910390fd5b61168481611705565b50565b61168f6117c9565b73ffffffffffffffffffffffffffffffffffffffff166116ad611022565b73ffffffffffffffffffffffffffffffffffffffff1614611703576040517f08c379a00000000000000000000000000000000000000000000000000000000081526004016116fa90612bb5565b60405180910390fd5b565b60008060009054906101000a900473ffffffffffffffffffffffffffffffffffffffff169050816000806101000a81548173ffffffffffffffffffffffffffffffffffffffff021916908373ffffffffffffffffffffffffffffffffffffffff1602179055508173ffffffffffffffffffffffffffffffffffffffff168173ffffffffffffffffffffffffffffffffffffffff167f8be0079c531659141344cd1fd0a4f28419497f9722a3daafe3b4186f6b6457e060405160405180910390a35050565b600033905090565b6040518060c0016040528060008152602001600073ffffffffffffffffffffffffffffffffffffffff16815260200160008152602001600081526020016000600181111561182257611821611bdb565b5b8152602001606081525090565b6000604051905090565b600080fd5b600080fd5b6000819050919050565b61185681611843565b811461186157600080fd5b50565b6000813590506118738161184d565b92915050565b60006020828403121561188f5761188e611839565b5b600061189d84828501611864565b91505092915050565b6118af81611843565b82525050565b60006020820190506118ca60008301846118a6565b92915050565b600080fd5b600080fd5b600080fd5b60008083601f8401126118f5576118f46118d0565b5b8235905067ffffffffffffffff811115611912576119116118d5565b5b60208301915083600182028301111561192e5761192d6118da565b5b9250929050565b6000806020838503121561194c5761194b611839565b5b600083013567ffffffffffffffff81111561196a5761196961183e565b5b611976858286016118df565b92509250509250929050565b600073ffffffffffffffffffffffffffffffffffffffff82169050919050565b60006119ad82611982565b9050919050565b6119bd816119a2565b82525050565b60006020820190506119d860008301846119b4565b92915050565b60008115159050919050565b6119f3816119de565b82525050565b600081519050919050565b600082825260208201905092915050565b60005b83811015611a33578082015181840152602081019050611a18565b60008484015250505050565b6000601f19601f8301169050919050565b6000611a5b826119f9565b611a658185611a04565b9350611a75818560208601611a15565b611a7e81611a3f565b840191505092915050565b6000604082019050611a9e60008301856119ea565b8181036020830152611ab08184611a50565b90509392505050565b6000819050919050565b6000611ade611ad9611ad484611982565b611ab9565b611982565b9050919050565b6000611af082611ac3565b9050919050565b6000611b0282611ae5565b9050919050565b611b1281611af7565b82525050565b6000602082019050611b2d6000830184611b09565b92915050565b6000611b3e82611ae5565b9050919050565b611b4e81611b33565b82525050565b6000602082019050611b696000830184611b45565b92915050565b611b78816119a2565b8114611b8357600080fd5b50565b600081359050611b9581611b6f565b92915050565b60008060408385031215611bb257611bb1611839565b5b6000611bc085828601611b86565b9250506020611bd185828601611864565b9150509250929050565b7f4e487b7100000000000000000000000000000000000000000000000000000000600052602160045260246000fd5b60028110611c1b57611c1a611bdb565b5b50565b6000819050611c2c82611c0a565b919050565b6000611c3c82611c1e565b9050919050565b611c4c81611c31565b82525050565b600081519050919050565b600082825260208201905092915050565b6000611c7982611c52565b611c838185611c5d565b9350611c93818560208601611a15565b611c9c81611a3f565b840191505092915050565b600060c082019050611cbc60008301896118a6565b611cc960208301886119b4565b611cd660408301876118a6565b611ce360608301866118a6565b611cf06080830185611c43565b81810360a0830152611d028184611c6e565b9050979650505050505050565b600060208284031215611d2557611d24611839565b5b6000611d3384828501611b86565b91505092915050565b600081519050919050565b600082825260208201905092915050565b6000819050602082019050919050565b611d7181611843565b82525050565b611d80816119a2565b82525050565b611d8f81611c31565b82525050565b600082825260208201905092915050565b6000611db182611c52565b611dbb8185611d95565b9350611dcb818560208601611a15565b611dd481611a3f565b840191505092915050565b600060c083016000830151611df76000860182611d68565b506020830151611e0a6020860182611d77565b506040830151611e1d6040860182611d68565b506060830151611e306060860182611d68565b506080830151611e436080860182611d86565b5060a083015184820360a0860152611e5b8282611da6565b9150508091505092915050565b6000611e748383611ddf565b905092915050565b6000602082019050919050565b6000611e9482611d3c565b611e9e8185611d47565b935083602082028501611eb085611d58565b8060005b85811015611eec5784840389528151611ecd8582611e68565b9450611ed883611e7c565b925060208a01995050600181019050611eb4565b50829750879550505050505092915050565b60006020820190508181036000830152611f188184611e89565b905092915050565b6000611f2b82611982565b9050919050565b611f3b81611f20565b8114611f4657600080fd5b50565b600081359050611f5881611f32565b92915050565b600060208284031215611f7457611f73611839565b5b6000611f8284828501611f49565b91505092915050565b6000602082019050611fa060008301846119ea565b92915050565b7f4e487b7100000000000000000000000000000000000000000000000000000000600052603260045260246000fd5b6000602082019050611fea6000830184611c43565b92915050565b600069ffffffffffffffffffff82169050919050565b61200f81611ff0565b811461201a57600080fd5b50565b60008151905061202c81612006565b92915050565b6000819050919050565b61204581612032565b811461205057600080fd5b50565b6000815190506120628161203c565b92915050565b6000815190506120778161184d565b92915050565b600080600080600060a0868803121561209957612098611839565b5b60006120a78882890161201d565b95505060206120b888828901612053565b94505060406120c988828901612068565b93505060606120da88828901612068565b92505060806120eb8882890161201d565b9150509295509295909350565b7f496e76616c696420707269636500000000000000000000000000000000000000600082015250565b600061212e600d83611c5d565b9150612139826120f8565b602082019050919050565b6000602082019050818103600083015261215d81612121565b9050919050565b6000806040838503121561217b5761217a611839565b5b600061218985828601611f49565b925050602061219a85828601611864565b9150509250929050565b7f416c726561647920736574746c65640000000000000000000000000000000000600082015250565b60006121da600f83611c5d565b91506121e5826121a4565b602082019050919050565b60006020820190508181036000830152612209816121cd565b9050919050565b7f4e487b7100000000000000000000000000000000000000000000000000000000600052601160045260246000fd5b600061224a82611843565b915061225583611843565b925082820190508082111561226d5761226c612210565b5b92915050565b7f4e6f742065787069726564207965740000000000000000000000000000000000600082015250565b60006122a9600f83611c5d565b91506122b482612273565b602082019050919050565b600060208201905081810360008301526122d88161229c565b9050919050565b60006040820190506122f460008301856118a6565b61230160208301846118a6565b9392505050565b600060408201905061231d60008301856119b4565b61232a60208301846118a6565b9392505050565b61233a816119de565b811461234557600080fd5b50565b60008151905061235781612331565b92915050565b60006020828403121561237357612372611839565b5b600061238184828501612348565b91505092915050565b7f496e76616c69642070726f766964657200000000000000000000000000000000600082015250565b60006123c0601083611c5d565b91506123cb8261238a565b602082019050919050565b600060208201905081810360008301526123ef816123b3565b9050919050565b60008151905061240581611b6f565b92915050565b600080fd5b7f4e487b7100000000000000000000000000000000000000000000000000000000600052604160045260246000fd5b61244882611a3f565b810181811067ffffffffffffffff8211171561246757612466612410565b5b80604052505050565b600061247a61182f565b9050612486828261243f565b919050565b600067ffffffffffffffff8211156124a6576124a5612410565b5b6124af82611a3f565b9050602081019050919050565b60006124cf6124ca8461248b565b612470565b9050828152602081018484840111156124eb576124ea61240b565b5b6124f6848285611a15565b509392505050565b600082601f830112612513576125126118d0565b5b81516125238482602086016124bc565b91505092915050565b60008060008060008060c0878903121561254957612548611839565b5b600061255789828a01612068565b965050602061256889828a016123f6565b955050604087015167ffffffffffffffff8111156125895761258861183e565b5b61259589828a016124fe565b94505060606125a689828a01612068565b935050608087015167ffffffffffffffff8111156125c7576125c661183e565b5b6125d389828a016124fe565b92505060a087015167ffffffffffffffff8111156125f4576125f361183e565b5b61260089828a016124fe565b9150509295509295509295565b600061261882611843565b915061262383611843565b925082820261263181611843565b9150828204841483151761264857612647612210565b5b5092915050565b7f4e487b7100000000000000000000000000000000000000000000000000000000600052601260045260246000fd5b600061268982611843565b915061269483611843565b9250826126a4576126a361264f565b5b828204905092915050565b7f496e73756666696369656e742041564158000000000000000000000000000000600082015250565b60006126e5601183611c5d565b91506126f0826126af565b602082019050919050565b60006020820190508181036000830152612714816126d8565b9050919050565b7f4e487b7100000000000000000000000000000000000000000000000000000000600052602260045260246000fd5b6000600282049050600182168061276257607f821691505b6020821081036127755761277461271b565b5b50919050565b60008190508160005260206000209050919050565b60006020601f8301049050919050565b600082821b905092915050565b6000600883026127dd7fffffffffffffffffffffffffffffffffffffffffffffffffffffffffffffffff826127a0565b6127e786836127a0565b95508019841693508086168417925050509392505050565b600061281a61281561281084611843565b611ab9565b611843565b9050919050565b6000819050919050565b612834836127ff565b61284861284082612821565b8484546127ad565b825550505050565b600090565b61285d612850565b61286881848461282b565b505050565b5b8181101561288c57612881600082612855565b60018101905061286e565b5050565b601f8211156128d1576128a28161277b565b6128ab84612790565b810160208510156128ba578190505b6128ce6128c685612790565b83018261286d565b50505b505050565b600082821c905092915050565b60006128f4600019846008026128d6565b1980831691505092915050565b600061290d83836128e3565b9150826002028217905092915050565b61292682611c52565b67ffffffffffffffff81111561293f5761293e612410565b5b612949825461274a565b612954828285612890565b600060209050601f8311600181146129875760008415612975578287015190505b61297f8582612901565b8655506129e7565b601f1984166129958661277b565b60005b828110156129bd57848901518255600182019150602085019450602081019050612998565b868310156129da57848901516129d6601f8916826128e3565b8355505b6001600288020188555050505b505050505050565b60006129fa82611843565b9150612a0583611843565b9250828203905081811115612a1d57612a1c612210565b5b92915050565b6000612a2e82611843565b91507fffffffffffffffffffffffffffffffffffffffffffffffffffffffffffffffff8203612a6057612a5f612210565b5b600182019050919050565b7f4e6f7468696e6720746f20776974686472617700000000000000000000000000600082015250565b6000612aa1601383611c5d565b9150612aac82612a6b565b602082019050919050565b60006020820190508181036000830152612ad081612a94565b9050919050565b7f4f776e61626c653a206e6577206f776e657220697320746865207a65726f206160008201527f6464726573730000000000000000000000000000000000000000000000000000602082015250565b6000612b33602683611c5d565b9150612b3e82612ad7565b604082019050919050565b60006020820190508181036000830152612b6281612b26565b9050919050565b7f4f776e61626c653a2063616c6c6572206973206e6f7420746865206f776e6572600082015250565b6000612b9f602083611c5d565b9150612baa82612b69565b602082019050919050565b60006020820190508181036000830152612bce81612b92565b905091905056fea2646970667358221220a2ea6789eeecb25bc089a69560aeb5194b58344df751694c2f20f14d2b799cd364736f6c634300081c0033",
  "linkReferences": {},
  "deployedLinkReferences": {}
}