{
  "_format": "hh-sol-artifact-1",
  "contractName": "McpProvider",
  "sourceName": "contracts/McpProvider.sol",
  "abi": [
    {
      "inputs": [
        {
          "internalType": "address",
          "name": "_priceFeed",
          "type": "address"
        }
      ],
      "stateMutability": "nonpayable",
      "type": "constructor"
    },
    {
      "anonymous": false,
      "inputs": [
        {
          "indexed": true,
          "internalType": "address",
          "name": "provider",
          "type": "address"
        },
        {
          "indexed": false,
          "internalType": "uint256",
          "name": "amountPaid",
          "type": "uint256"
        },
        {
          "indexed": true,
          "internalType": "uint256",
          "name": "providerNonce",
          "type": "uint256"
        }
      ],
      "name": "McpProviderRegistered",
      "type": "event"
    },
    {
      "anonymous": false,
      "inputs": [
        {
          "indexed": true,
          "internalType": "address",
          "name": "provider",
          "type": "address"
        },
        {
          "indexed": true,
          "internalType": "uint256",
          "name": "providerNonce",
          "type": "uint256"
        },
        {
          "indexed": false,
          "internalType": "uint256",
          "name": "priceUsd",
          "type": "uint256"
        }
      ],
      "name": "McpProviderUpdated",
      "type": "event"
    },
    {
      "anonymous": false,
      "inputs": [
        {
          "indexed": true,
          "internalType": "address",
          "name": "previousOwner",
          "type": "address"
        },
        {
          "indexed": true,
          "internalType": "address",
          "name": "newOwner",
          "type": "address"
        }
      ],
      "name": "OwnershipTransferred",
      "type": "event"
    },
    {
      "inputs": [
        {
          "internalType": "uint256",
          "name": "_nonce",
          "type": "uint256"
        }
      ],
      "name": "exists",
      "outputs": [
        {
          "internalType": "bool",
          "name": "",
          "type": "bool"
        }
      ],
      "stateMutability": "view",
      "type": "function"
    },
    {
      "inputs": [
        {
          "internalType": "address",
          "name": "provider",
          "type": "address"
        }
      ],
      "name": "getAllMcpsByAddress",
      "outputs": [
        {
          "components": [
            {
              "internalType": "uint256",
              "name": "providerNonce",
              "type": "uint256"
            },
            {
              "internalType": "address",
              "name": "providerAddress",
              "type": "address"
            },
            {
              "internalType": "uint256",
              "name": "amountPaid",
              "type": "uint256"
            },
            {
              "internalType": "string",
              "name": "serviceName",
              "type": "string"
            },
            {
              "internalType": "uint256",
              "name": "usdPriceForConsumerMonth",
              "type": "uint256"
            },
            {
              "internalType": "string",
              "name": "serviceDescription",
              "type": "string"
            },
            {
              "internalType": "string",
              "name": "url",
              "type": "string"
            }
          ],
          "internalType": "struct McpProvider.License[]",
          "name": "",
          "type": "tuple[]"
        }
      ],
      "stateMutability": "view",
      "type": "function"
    },
    {
      "inputs": [],
      "name": "getLatestAvaxUsdPrice",
      "outputs": [
        {
          "internalType": "uint256",
          "name": "",
          "type": "uint256"
        }
      ],
      "stateMutability": "view",
      "type": "function"
    },
    {
      "inputs": [],
      "name": "getLicenseFeeInAvax",
      "outputs": [
        {
          "internalType": "uint256",
          "name": "",
          "type": "uint256"
        }
      ],
      "stateMutability": "view",
      "type": "function"
    },
    {
      "inputs": [
        {
          "internalType": "uint256",
          "name": "nonce",
          "type": "uint256"
        }
      ],
      "name": "getServiceDetails",
      "outputs": [
        {
          "internalType": "uint256",
          "name": "providerNonce",
          "type": "uint256"
        },
        {
          "internalType": "address",
          "name": "providerAddress",
          "type": "address"
        },
        {
          "internalType": "string",
          "name": "serviceName",
          "type": "string"
        },
        {
          "internalType": "uint256",
          "name": "usdPriceForConsumerMonth",
          "type": "uint256"
        },
        {
          "internalType": "string",
          "name": "serviceDescription",
          "type": "string"
        },
        {
          "internalType": "string",
          "name": "url",
          "type": "string"
        }
      ],
      "stateMutability": "view",
      "type": "function"
    },
    {
      "inputs": [],
      "name": "globalProviderNonce",
      "outputs": [
        {
          "internalType": "uint256",
          "name": "",
          "type": "uint256"
        }
      ],
      "stateMutability": "view",
      "type": "function"
    },
    {
      "inputs": [
        {
          "internalType": "uint256",
          "name": "",
          "type": "uint256"
        }
      ],
      "name": "licenses",
      "outputs": [
        {
          "internalType": "uint256",
          "name": "providerNonce",
          "type": "uint256"
        },
        {
          "internalType": "address",
          "name": "providerAddress",
          "type": "address"
        },
        {
          "internalType": "uint256",
          "name": "amountPaid",
          "type": "uint256"
        },
        {
          "internalType": "string",
          "name": "serviceName",
          "type": "string"
        },
        {
          "internalType": "uint256",
          "name": "usdPriceForConsumerMonth",
          "type": "uint256"
        },
        {
          "internalType": "string",
          "name": "serviceDescription",
          "type": "string"
        },
        {
          "internalType": "string",
          "name": "url",
          "type": "string"
        }
      ],
      "stateMutability": "view",
      "type": "function"
    },
    {
      "inputs": [],
      "name": "owner",
      "outputs": [
        {
          "internalType": "address",
          "name": "",
          "type": "address"
        }
      ],
      "stateMutability": "view",
      "type": "function"
    },
    {
      "inputs": [
        {
          "internalType": "address",
          "name": "",
          "type": "address"
        },
        {
          "internalType": "uint256",
          "name": "",
          "type": "uint256"
        }
      ],
      "name": "providerLicenses",
      "outputs": [
        {
          "internalType": "uint256",
          "name": "",
          "type": "uint256"
        }
      ],
      "stateMutability": "view",
      "type": "function"
    },
    {
      "inputs": [
        {
          "internalType": "string",
          "name": "_serviceName",
          "type": "string"
        },
        {
          "internalType": "uint256",
          "name": "_usdPriceForConsumerMonth",
          "type": "uint256"
        },
        {
          "internalType": "string",
          "name": "_serviceDescription",
          "type": "string"
        },
        {
          "internalType": "string",
          "name": "_url",
          "type": "string"
        }
      ],
      "name": "registerMcp",
      "outputs": [],
      "stateMutability": "payable",
      "type": "function"
    },
    {
      "inputs": [],
      "name": "renounceOwnership",
      "outputs": [],
      "stateMutability": "nonpayable",
      "type": "function"
    },
    {
      "inputs": [
        {
          "internalType": "address",
          "name": "newOwner",
          "type": "address"
        }
      ],
      "name": "transferOwnership",
      "outputs": [],
      "stateMutability": "nonpayable",
      "type": "function"
    },
    {
      "inputs": [
        {
          "internalType": "uint256",
          "name": "_nonce",
          "type": "uint256"
        },
        {
          "internalType": "string",
          "name": "_serviceName",
          "type": "string"
        },
        {
          "internalType": "uint256",
          "name": "_usdPriceForConsumerMonth",
          "type": "uint256"
        },
        {
          "internalType": "string",
          "name": "_serviceDescription",
          "type": "string"
        },
        {
          "internalType": "string",
          "name": "_url",
          "type": "string"
        }
      ],
      "name": "updateMcp",
      "outputs": [],
      "stateMutability": "nonpayable",
      "type": "function"
    },
    {
      "inputs": [],
      "name": "usdLicenseFee",
      "outputs": [
        {
          "internalType": "uint256",
          "name": "",
          "type": "uint256"
        }
      ],
      "stateMutability": "view",
      "type": "function"
    },
    {
      "inputs": [
        {
          "internalType": "address payable",
          "name": "to",
          "type": "address"
        }
      ],
      "name": "withdrawAvax",
      "outputs": [],
      "stateMutability": "nonpayable",
      "type": "function"
    }
  ],
  "bytecode": "0x6080604052678ac7230489e8000060055534801561001c57600080fd5b506040516128e23803806128e2833981810160405281019061003e91906101d0565b61005a61004f6100a160201b60201c565b6100a960201b60201c565b80600460006101000a81548173ffffffffffffffffffffffffffffffffffffffff021916908373ffffffffffffffffffffffffffffffffffffffff160217905550506101fd565b600033905090565b60008060009054906101000a900473ffffffffffffffffffffffffffffffffffffffff169050816000806101000a81548173ffffffffffffffffffffffffffffffffffffffff021916908373ffffffffffffffffffffffffffffffffffffffff1602179055508173ffffffffffffffffffffffffffffffffffffffff168173ffffffffffffffffffffffffffffffffffffffff167f8be0079c531659141344cd1fd0a4f28419497f9722a3daafe3b4186f6b6457e060405160405180910390a35050565b600080fd5b600073ffffffffffffffffffffffffffffffffffffffff82169050919050565b600061019d82610172565b9050919050565b6101ad81610192565b81146101b857600080fd5b50565b6000815190506101ca816101a4565b92915050565b6000602082840312156101e6576101e561016d565b5b60006101f4848285016101bb565b91505092915050565b6126d68061020c6000396000f3fe6080604052600436106100e85760003560e01c8063715018a61161008a578063c2698c8411610059578063c2698c84146102dd578063db6c00f21461031f578063f2fde38b14610348578063f76f605e14610371576100e8565b8063715018a614610256578063750a8b8e1461026d5780638da5cb5b14610296578063a2cf209d146102c1576100e8565b806333790845116100c6578063337908451461018057806333bbf0cc146101c35780634ad39ee1146101ee5780634f558e7914610219576100e8565b80630a4c0e5f146100ed5780632648d35d146101185780632a13c27414610143575b600080fd5b3480156100f957600080fd5b506101026103ae565b60405161010f9190611443565b60405180910390f35b34801561012457600080fd5b5061012d6103b4565b60405161013a9190611443565b60405180910390f35b34801561014f57600080fd5b5061016a600480360381019061016591906114d0565b6103e4565b6040516101779190611717565b60405180910390f35b34801561018c57600080fd5b506101a760048036038101906101a29190611765565b610775565b6040516101ba97969594939291906117eb565b60405180910390f35b3480156101cf57600080fd5b506101d861096f565b6040516101e59190611443565b60405180910390f35b3480156101fa57600080fd5b50610203610a53565b6040516102109190611443565b60405180910390f35b34801561022557600080fd5b50610240600480360381019061023b9190611765565b610a59565b60405161024d919061188a565b60405180910390f35b34801561026257600080fd5b5061026b610a67565b005b34801561027957600080fd5b50610294600480360381019061028f9190611a3a565b610a7b565b005b3480156102a257600080fd5b506102ab610c04565b6040516102b89190611b12565b60405180910390f35b6102db60048036038101906102d69190611b2d565b610c2d565b005b3480156102e957600080fd5b5061030460048036038101906102ff9190611765565b610ee4565b60405161031696959493929190611bf0565b60405180910390f35b34801561032b57600080fd5b5061034660048036038101906103419190611ca4565b61113e565b005b34801561035457600080fd5b5061036f600480360381019061036a91906114d0565b6111d9565b005b34801561037d57600080fd5b5061039860048036038101906103939190611cd1565b61125c565b6040516103a59190611443565b60405180910390f35b60035481565b6000806103bf61096f565b9050806305f5e1006005546103d49190611d40565b6103de9190611db1565b91505090565b60606000600260008473ffffffffffffffffffffffffffffffffffffffff1673ffffffffffffffffffffffffffffffffffffffff16815260200190815260200160002080548060200260200160405190810160405280929190818152602001828054801561047157602002820191906000526020600020905b81548152602001906001019080831161045d575b505050505090506000815167ffffffffffffffff8111156104955761049461190f565b5b6040519080825280602002602001820160405280156104ce57816020015b6104bb6113d7565b8152602001906001900390816104b35790505b50905060005b825181101561076a57600160008483815181106104f4576104f3611de2565b5b602002602001015181526020019081526020016000206040518060e0016040529081600082015481526020016001820160009054906101000a900473ffffffffffffffffffffffffffffffffffffffff1673ffffffffffffffffffffffffffffffffffffffff1673ffffffffffffffffffffffffffffffffffffffff1681526020016002820154815260200160038201805461058f90611e40565b80601f01602080910402602001604051908101604052809291908181526020018280546105bb90611e40565b80156106085780601f106105dd57610100808354040283529160200191610608565b820191906000526020600020905b8154815290600101906020018083116105eb57829003601f168201915b505050505081526020016004820154815260200160058201805461062b90611e40565b80601f016020809104026020016040519081016040528092919081815260200182805461065790611e40565b80156106a45780601f10610679576101008083540402835291602001916106a4565b820191906000526020600020905b81548152906001019060200180831161068757829003601f168201915b505050505081526020016006820180546106bd90611e40565b80601f01602080910402602001604051908101604052809291908181526020018280546106e990611e40565b80156107365780601f1061070b57610100808354040283529160200191610736565b820191906000526020600020905b81548152906001019060200180831161071957829003601f168201915b50505050508152505082828151811061075257610751611de2565b5b602002602001018190525080806001019150506104d4565b508092505050919050565b60016020528060005260406000206000915090508060000154908060010160009054906101000a900473ffffffffffffffffffffffffffffffffffffffff16908060020154908060030180546107ca90611e40565b80601f01602080910402602001604051908101604052809291908181526020018280546107f690611e40565b80156108435780601f1061081857610100808354040283529160200191610843565b820191906000526020600020905b81548152906001019060200180831161082657829003601f168201915b50505050509080600401549080600501805461085e90611e40565b80601f016020809104026020016040519081016040528092919081815260200182805461088a90611e40565b80156108d75780601f106108ac576101008083540402835291602001916108d7565b820191906000526020600020905b8154815290600101906020018083116108ba57829003601f168201915b5050505050908060060180546108ec90611e40565b80601f016020809104026020016040519081016040528092919081815260200182805461091890611e40565b80156109655780601f1061093a57610100808354040283529160200191610965565b820191906000526020600020905b81548152906001019060200180831161094857829003601f168201915b5050505050905087565b600080600460009054906101000a900473ffffffffffffffffffffffffffffffffffffffff1673ffffffffffffffffffffffffffffffffffffffff1663feaf968c6040518163ffffffff1660e01b815260040160a060405180830381865afa1580156109df573d6000803e3d6000fd5b505050506040513d601f19601f82011682018060405250810190610a039190611efe565b50505091505060008113610a4c576040517f08c379a0000000000000000000000000000000000000000000000000000000008152600401610a4390611fc5565b60405180910390fd5b8091505090565b60055481565b600060035482109050919050565b610a6f61128d565b610a79600061130b565b565b6003548710610abf576040517f08c379a0000000000000000000000000000000000000000000000000000000008152600401610ab690612031565b60405180910390fd5b60006001600089815260200190815260200160002090503373ffffffffffffffffffffffffffffffffffffffff168160010160009054906101000a900473ffffffffffffffffffffffffffffffffffffffff1673ffffffffffffffffffffffffffffffffffffffff1614610b68576040517f08c379a0000000000000000000000000000000000000000000000000000000008152600401610b5f9061209d565b60405180910390fd5b8686826003019182610b7b929190612274565b508383826005019182610b8f929190612274565b5084816004018190555081816006019081610baa9190612344565b50873373ffffffffffffffffffffffffffffffffffffffff167f68e80c7ffa61e22b90ecb6773bd470add09dd075c6d4d829e9e7236431ff1ef687604051610bf29190611443565b60405180910390a35050505050505050565b60008060009054906101000a900473ffffffffffffffffffffffffffffffffffffffff16905090565b6000610c376103b4565b905080341015610c7c576040517f08c379a0000000000000000000000000000000000000000000000000000000008152600401610c7390612462565b60405180910390fd5b600060036000815480929190610c9190612482565b9190505590506040518060e001604052808281526020013373ffffffffffffffffffffffffffffffffffffffff16815260200134815260200189898080601f016020809104026020016040519081016040528093929190818152602001838380828437600081840152601f19601f82011690508083019250505050505050815260200187815260200186868080601f016020809104026020016040519081016040528093929190818152602001838380828437600081840152601f19601f82011690508083019250505050505050815260200184815250600160008381526020019081526020016000206000820151816000015560208201518160010160006101000a81548173ffffffffffffffffffffffffffffffffffffffff021916908373ffffffffffffffffffffffffffffffffffffffff160217905550604082015181600201556060820151816003019081610deb9190612344565b506080820151816004015560a0820151816005019081610e0b9190612344565b5060c0820151816006019081610e219190612344565b50905050600260003373ffffffffffffffffffffffffffffffffffffffff1673ffffffffffffffffffffffffffffffffffffffff168152602001908152602001600020819080600181540180825580915050600190039060005260206000200160009091909190915055803373ffffffffffffffffffffffffffffffffffffffff167f60a7191c0083f2d7da199ddff3eb06fd711c08b7b5dabbde5081419bcbc3e07434604051610ed29190611443565b60405180910390a35050505050505050565b600080606060006060806003548710610f32576040517f08c379a0000000000000000000000000000000000000000000000000000000008152600401610f2990612516565b60405180910390fd5b600060016000898152602001908152602001600020905080600001548160010160009054906101000a900473ffffffffffffffffffffffffffffffffffffffff168260030183600401548460050185600601838054610f9090611e40565b80601f0160208091040260200160405190810160405280929190818152602001828054610fbc90611e40565b80156110095780601f10610fde57610100808354040283529160200191611009565b820191906000526020600020905b815481529060010190602001808311610fec57829003601f168201915b5050505050935081805461101c90611e40565b80601f016020809104026020016040519081016040528092919081815260200182805461104890611e40565b80156110955780601f1061106a57610100808354040283529160200191611095565b820191906000526020600020905b81548152906001019060200180831161107857829003601f168201915b505050505091508080546110a890611e40565b80601f01602080910402602001604051908101604052809291908181526020018280546110d490611e40565b80156111215780601f106110f657610100808354040283529160200191611121565b820191906000526020600020905b81548152906001019060200180831161110457829003601f168201915b505050505090509650965096509650965096505091939550919395565b61114661128d565b60004790506000811161118e576040517f08c379a000000000000000000000000000000000000000000000000000000000815260040161118590612582565b60405180910390fd5b8173ffffffffffffffffffffffffffffffffffffffff166108fc829081150290604051600060405180830381858888f193505050501580156111d4573d6000803e3d6000fd5b505050565b6111e161128d565b600073ffffffffffffffffffffffffffffffffffffffff168173ffffffffffffffffffffffffffffffffffffffff1603611250576040517f08c379a000000000000000000000000000000000000000000000000000000000815260040161124790612614565b60405180910390fd5b6112598161130b565b50565b6002602052816000526040600020818154811061127857600080fd5b90600052602060002001600091509150505481565b6112956113cf565b73ffffffffffffffffffffffffffffffffffffffff166112b3610c04565b73ffffffffffffffffffffffffffffffffffffffff1614611309576040517f08c379a000000000000000000000000000000000000000000000000000000000815260040161130090612680565b60405180910390fd5b565b60008060009054906101000a900473ffffffffffffffffffffffffffffffffffffffff169050816000806101000a81548173ffffffffffffffffffffffffffffffffffffffff021916908373ffffffffffffffffffffffffffffffffffffffff1602179055508173ffffffffffffffffffffffffffffffffffffffff168173ffffffffffffffffffffffffffffffffffffffff167f8be0079c531659141344cd1fd0a4f28419497f9722a3daafe3b4186f6b6457e060405160405180910390a35050565b600033905090565b6040518060e0016040528060008152602001600073ffffffffffffffffffffffffffffffffffffffff16815260200160008152602001606081526020016000815260200160608152602001606081525090565b6000819050919050565b61143d8161142a565b82525050565b60006020820190506114586000830184611434565b92915050565b6000604051905090565b600080fd5b600080fd5b600073ffffffffffffffffffffffffffffffffffffffff82169050919050565b600061149d82611472565b9050919050565b6114ad81611492565b81146114b857600080fd5b50565b6000813590506114ca816114a4565b92915050565b6000602082840312156114e6576114e5611468565b5b60006114f4848285016114bb565b91505092915050565b600081519050919050565b600082825260208201905092915050565b6000819050602082019050919050565b6115328161142a565b82525050565b61154181611492565b82525050565b600081519050919050565b600082825260208201905092915050565b60005b83811015611581578082015181840152602081019050611566565b60008484015250505050565b6000601f19601f8301169050919050565b60006115a982611547565b6115b38185611552565b93506115c3818560208601611563565b6115cc8161158d565b840191505092915050565b600060e0830160008301516115ef6000860182611529565b5060208301516116026020860182611538565b5060408301516116156040860182611529565b506060830151848203606086015261162d828261159e565b91505060808301516116426080860182611529565b5060a083015184820360a086015261165a828261159e565b91505060c083015184820360c0860152611674828261159e565b9150508091505092915050565b600061168d83836115d7565b905092915050565b6000602082019050919050565b60006116ad826114fd565b6116b78185611508565b9350836020820285016116c985611519565b8060005b8581101561170557848403895281516116e68582611681565b94506116f183611695565b925060208a019950506001810190506116cd565b50829750879550505050505092915050565b6000602082019050818103600083015261173181846116a2565b905092915050565b6117428161142a565b811461174d57600080fd5b50565b60008135905061175f81611739565b92915050565b60006020828403121561177b5761177a611468565b5b600061178984828501611750565b91505092915050565b61179b81611492565b82525050565b600082825260208201905092915050565b60006117bd82611547565b6117c781856117a1565b93506117d7818560208601611563565b6117e08161158d565b840191505092915050565b600060e082019050611800600083018a611434565b61180d6020830189611792565b61181a6040830188611434565b818103606083015261182c81876117b2565b905061183b6080830186611434565b81810360a083015261184d81856117b2565b905081810360c083015261186181846117b2565b905098975050505050505050565b60008115159050919050565b6118848161186f565b82525050565b600060208201905061189f600083018461187b565b92915050565b600080fd5b600080fd5b600080fd5b60008083601f8401126118ca576118c96118a5565b5b8235905067ffffffffffffffff8111156118e7576118e66118aa565b5b602083019150836001820283011115611903576119026118af565b5b9250929050565b600080fd5b7f4e487b7100000000000000000000000000000000000000000000000000000000600052604160045260246000fd5b6119478261158d565b810181811067ffffffffffffffff821117156119665761196561190f565b5b80604052505050565b600061197961145e565b9050611985828261193e565b919050565b600067ffffffffffffffff8211156119a5576119a461190f565b5b6119ae8261158d565b9050602081019050919050565b82818337600083830152505050565b60006119dd6119d88461198a565b61196f565b9050828152602081018484840111156119f9576119f861190a565b5b611a048482856119bb565b509392505050565b600082601f830112611a2157611a206118a5565b5b8135611a318482602086016119ca565b91505092915050565b600080600080600080600060a0888a031215611a5957611a58611468565b5b6000611a678a828b01611750565b975050602088013567ffffffffffffffff811115611a8857611a8761146d565b5b611a948a828b016118b4565b96509650506040611aa78a828b01611750565b945050606088013567ffffffffffffffff811115611ac857611ac761146d565b5b611ad48a828b016118b4565b9350935050608088013567ffffffffffffffff811115611af757611af661146d565b5b611b038a828b01611a0c565b91505092959891949750929550565b6000602082019050611b276000830184611792565b92915050565b60008060008060008060808789031215611b4a57611b49611468565b5b600087013567ffffffffffffffff811115611b6857611b6761146d565b5b611b7489828a016118b4565b96509650506020611b8789828a01611750565b945050604087013567ffffffffffffffff811115611ba857611ba761146d565b5b611bb489828a016118b4565b9350935050606087013567ffffffffffffffff811115611bd757611bd661146d565b5b611be389828a01611a0c565b9150509295509295509295565b600060c082019050611c056000830189611434565b611c126020830188611792565b8181036040830152611c2481876117b2565b9050611c336060830186611434565b8181036080830152611c4581856117b2565b905081810360a0830152611c5981846117b2565b9050979650505050505050565b6000611c7182611472565b9050919050565b611c8181611c66565b8114611c8c57600080fd5b50565b600081359050611c9e81611c78565b92915050565b600060208284031215611cba57611cb9611468565b5b6000611cc884828501611c8f565b91505092915050565b60008060408385031215611ce857611ce7611468565b5b6000611cf6858286016114bb565b9250506020611d0785828601611750565b9150509250929050565b7f4e487b7100000000000000000000000000000000000000000000000000000000600052601160045260246000fd5b6000611d4b8261142a565b9150611d568361142a565b9250828202611d648161142a565b91508282048414831517611d7b57611d7a611d11565b5b5092915050565b7f4e487b7100000000000000000000000000000000000000000000000000000000600052601260045260246000fd5b6000611dbc8261142a565b9150611dc78361142a565b925082611dd757611dd6611d82565b5b828204905092915050565b7f4e487b7100000000000000000000000000000000000000000000000000000000600052603260045260246000fd5b7f4e487b7100000000000000000000000000000000000000000000000000000000600052602260045260246000fd5b60006002820490506001821680611e5857607f821691505b602082108103611e6b57611e6a611e11565b5b50919050565b600069ffffffffffffffffffff82169050919050565b611e9081611e71565b8114611e9b57600080fd5b50565b600081519050611ead81611e87565b92915050565b6000819050919050565b611ec681611eb3565b8114611ed157600080fd5b50565b600081519050611ee381611ebd565b92915050565b600081519050611ef881611739565b92915050565b600080600080600060a08688031215611f1a57611f19611468565b5b6000611f2888828901611e9e565b9550506020611f3988828901611ed4565b9450506040611f4a88828901611ee9565b9350506060611f5b88828901611ee9565b9250506080611f6c88828901611e9e565b9150509295509295909350565b7f496e76616c696420707269636500000000000000000000000000000000000000600082015250565b6000611faf600d836117a1565b9150611fba82611f79565b602082019050919050565b60006020820190508181036000830152611fde81611fa2565b9050919050565b7f496e76616c6964206e6f6e636500000000000000000000000000000000000000600082015250565b600061201b600d836117a1565b915061202682611fe5565b602082019050919050565b6000602082019050818103600083015261204a8161200e565b9050919050565b7f4e6f7420796f7572206c6963656e736500000000000000000000000000000000600082015250565b60006120876010836117a1565b915061209282612051565b602082019050919050565b600060208201905081810360008301526120b68161207a565b9050919050565b600082905092915050565b60008190508160005260206000209050919050565b60006020601f8301049050919050565b600082821b905092915050565b60006008830261212a7fffffffffffffffffffffffffffffffffffffffffffffffffffffffffffffffff826120ed565b61213486836120ed565b95508019841693508086168417925050509392505050565b6000819050919050565b600061217161216c6121678461142a565b61214c565b61142a565b9050919050565b6000819050919050565b61218b83612156565b61219f61219782612178565b8484546120fa565b825550505050565b600090565b6121b46121a7565b6121bf818484612182565b505050565b5b818110156121e3576121d86000826121ac565b6001810190506121c5565b5050565b601f821115612228576121f9816120c8565b612202846120dd565b81016020851015612211578190505b61222561221d856120dd565b8301826121c4565b50505b505050565b600082821c905092915050565b600061224b6000198460080261222d565b1980831691505092915050565b6000612264838361223a565b9150826002028217905092915050565b61227e83836120bd565b67ffffffffffffffff8111156122975761229661190f565b5b6122a18254611e40565b6122ac8282856121e7565b6000601f8311600181146122db57600084156122c9578287013590505b6122d38582612258565b86555061233b565b601f1984166122e9866120c8565b60005b82811015612311578489013582556001820191506020850194506020810190506122ec565b8683101561232e578489013561232a601f89168261223a565b8355505b6001600288020188555050505b50505050505050565b61234d82611547565b67ffffffffffffffff8111156123665761236561190f565b5b6123708254611e40565b61237b8282856121e7565b600060209050601f8311600181146123ae576000841561239c578287015190505b6123a68582612258565b86555061240e565b601f1984166123bc866120c8565b60005b828110156123e4578489015182556001820191506020850194506020810190506123bf565b8683101561240157848901516123fd601f89168261223a565b8355505b6001600288020188555050505b505050505050565b7f4c657373207468616e2024313020776f727468206f6620415641582073656e74600082015250565b600061244c6020836117a1565b915061245782612416565b602082019050919050565b6000602082019050818103600083015261247b8161243f565b9050919050565b600061248d8261142a565b91507fffffffffffffffffffffffffffffffffffffffffffffffffffffffffffffffff82036124bf576124be611d11565b5b600182019050919050565b7f4c6963656e736520646f6573206e6f7420657869737400000000000000000000600082015250565b60006125006016836117a1565b915061250b826124ca565b602082019050919050565b6000602082019050818103600083015261252f816124f3565b9050919050565b7f4e6f7468696e6720746f20776974686472617700000000000000000000000000600082015250565b600061256c6013836117a1565b915061257782612536565b602082019050919050565b6000602082019050818103600083015261259b8161255f565b9050919050565b7f4f776e61626c653a206e6577206f776e657220697320746865207a65726f206160008201527f6464726573730000000000000000000000000000000000000000000000000000602082015250565b60006125fe6026836117a1565b9150612609826125a2565b604082019050919050565b6000602082019050818103600083015261262d816125f1565b9050919050565b7f4f776e61626c653a2063616c6c6572206973206e6f7420746865206f776e6572600082015250565b600061266a6020836117a1565b915061267582612634565b602082019050919050565b600060208201905081810360008301526126998161265d565b905091905056fea26469706673582212209b27bb12825802548b5661c7253ad4b26115a91bae837f765e1e8937fca8760b64736f6c634300081c0033",
  "linkReferences": {},
  "deployedLinkReferences": {}
}